:020000040800F2
:10000000181000204D020008E5370008452B0008B5
:10001000E1370008150400080D3D0008000000004D
:10002000000000000000000000000000ED370008A4
:100030003104000800000000E9370008F13700082B
:1000400067020008670200086702000867020008EC
:1000500067020008670200086702000867020008DC
:1000600067020008670200086702000867020008CC
:100070006702000867020008670200081904000808
:1000800067020008670200086702000867020008AC
:10009000670200086702000867020008670200089C
:1000A000670200086702000867020008670200088C
:1000B000670200086702000867020008670200087C
:1000C000670200086702000867020008670200086C
:1000D000670200086702000867020008670200085C
:1000E000670200086702000867020008670200084C
:1000F000670200086702000867020008250400087C
:10010000670200086702000867020008670200082B
:10011000670200086702000867020008670200081B
:10012000670200086702000867020008670200080B
:1001300067020008670200086702000867020008FB
:1001400067020008670200086702000867020008EB
:1001500067020008670200086702000867020008DB
:1001600067020008492B00086702000867020008C0
:10017000670200086702000867020008000000002C
:100180006702000867020008113B000867020008C8
:10019000670200086702000867020008670200089B
:1001A00000000000000000006702000800F002F8F4
:1001B00000F03CF80AA090E8000C82448344AAF1C5
:1001C0000107DA4501D100F031F8AFF2090EBAE8C3
:1001D0000F0013F0010F18BFFB1A43F0010318477B
:1001E0006047000080470000103A24BF78C878C1FB
:1001F000FAD8520724BF30C830C144BF04680C602D
:10020000704700000023002400250026103A28BF74
:1002100078C1FBD8520728BF30C148BF0B60704778
:100220001FB504F05AFB1FBD10B510BD00F0BCF89F
:100230001146FFF7F5FF03F06BFD00F0DAF803B4A9
:10024000FFF7F2FF03BC00F0DDF80000094880472B
:1002500009480047FEE7FEE7FEE7FEE7FEE7FEE7A8
:10026000FEE7FEE7FEE7FEE704480549054A064BC0
:1002700070470000BD380008AD010008180A0020D2
:1002800018100020180C0020180C002053EA020C53
:1002900000F069802DE9F04B4FF00006002B1FBFE6
:1002A000B3FA83F503FA05F424FA05F65E4012BFAB
:1002B0001643B2FA82F502FA05F4C5F120051EBF15
:1002C00022FA05FC44EA0C04203556EA044C4FEAB5
:1002D000144418BF641C4FF000084FF0000990420E
:1002E00071EB030C39D3002919BFB1FA81F701FA78
:1002F00007F6B0FA80F700FA07F6C7F120071EBF2D
:1003000020FA07FC46EA0C062037B6FBF4FCA7EB04
:100310000507103F07F01F0BCBF120062CFA06F65D
:100320000CFA0BFB44BFB3460026202FA4BF5E4649
:100330004FF0000B5BEA060C08BF4FF0010B19EB06
:100340000B0948EB0608ABFB027C06FB02CC0BFB5F
:1003500003CCC01B71EB0C01C1E70B4602464146C2
:100360004846BDE8F08B13B5084318BF4FF0FF3087
:100370000146AFF30080BDE81C40704770477047EE
:10038000704710B500F008F8006810BD10B50446BD
:1003900000F002F8046010BD004870471000002013
:1003A00000487047100000207546FFF7F9FFAE4681
:1003B00005006946534620F00700854618B020B571
:1003C000FFF752FFBDE820404FF000064FF0000756
:1003D0004FF000084FF0000BAC46ACE8C009ACE8A9
:1003E000C009ACE8C009ACE8C00921F007018D469E
:1003F000704710B50446AFF300802046BDE81040BA
:10040000FFF71DBF01491820ABBEFEE72600020022
:1004100070470000FEE7000040F2A000C2F20000BA
:1004200000F01AB940F20010C2F2000000F014B956
:1004300070470000EFF3108072B600BFFEE70000C7
:10044000B0B5C8B1044690F8200010B9204600F0BD
:1004500071F82068016841F00101016000F0D6FBED
:10046000054600BF20684168C90707D100F0CEFBF0
:10047000401B0B28F6D312E00120B0BD016821F02B
:100480000201016000F0C2FB054600BF2068416820
:1004900089070DD500F0BAFB401B0B28F6D3606A24
:1004A000052140F400306062012084F82010B0BDC6
:1004B000217E0268012922F0800208BF803202609A
:1004C000617E0268012922F0400208BF40320260CA
:1004D000A17E0268012922F0200208BF20320260BA
:1004E000E17E0268012922F0100218BF103202607A
:1004F000217F0268012922F0080208BF0832026049
:10050000617F0268012922F0040208BF0432026000
:10051000D4E901C2D4E9033561691A432A4311437E
:10052000ACF101021143C16100200121606284F835
:100530002010B0BD80B586B0016846F20040C4F21C
:100540000000814202D006B080BD00BF002143F60A
:1005500030020191C4F20202136900F5D03043F079
:1005600000731361136903F000730193019B019100
:10057000136843F002031360126802F00202019252
:10058000019A4FF4407201920222CDE90221032127
:1005900004910921059101A900F054FA06B080BD2B
:1005A00070B5866D044600F031FB94F835100229D1
:1005B0002ED105462068216C026822F016020260E6
:1005C000426922F08002426109B9A16C19B1016847
:1005D00021F008010160016821F00101016000685B
:1005E000C00708D000F012FB401B052818D820686F
:1005F0000068C007F6D1E06D3F2101FA00F0B0605D
:10060000012084F835000020002184F8341070BDEA
:10061000802060650120002184F8341070BD00BF87
:1006200020206065032084F83500002184F8341010
:1006300070BD000090F83510022909D1052180F81D
:1006400035100068016821F0010101600020704749
:100650008021416501207047F0B581B0044600203B
:10066000009040F20800C2F200000268D4E916606F
:1006700048F2B51337680821C1F64E33814039423C
:10068000A2FB03250CD0226813685B0708D513680A
:1006900023F004031360B160616D41F001016165F5
:1006A00001218140394208D022685269120604D5DE
:1006B000B160616D41F00201616504218140394200
:1006C00008D022681268920704D5B160616D41F0CC
:1006D0000401616510218140394217D02068026809
:1006E000120713D5B16002680168520308D4C90526
:1006F00008D4016821F008010160216C21B905E0EE
:1007000008033FD4216C09B120468847E16D2020C1
:1007100000FA01F23A4241D020680368DB063DD579
:10072000B26094F835300268052B1BD122F0160216
:100730000260426922F080024261226C0AB9A26C16
:100740001AB1026822F0080202603F208840B060BF
:10075000012084F83500216D0020002984F8340040
:1007600052D157E00168520310D4C90512D4016870
:1007700021F010010160012084F83500002084F888
:10078000340007E0A16C0029BED1BFE7080301D403
:10079000616C00E0E16B09B120468847606DC8B329
:1007A000606DC0072ED0052084F835002068A90AA6
:1007B000026822F001020260009A01328A4200922D
:1007C0001AD80268D20717D0009A01328A420092E2
:1007D00012D80268D2070FD0009A01328A420092E2
:1007E0000AD80268D20707D0009A01328A420092E2
:1007F00002D80268D207DFD1012084F8350000203A
:1008000084F83400E16C29B1204601B0BDE8F04025
:10081000084700BF01B0F0BD2DE9F041044600F0EB
:10082000F5F9002C4ED00546022084F83500002052
:10083000216884F83400086820F001000860086826
:10084000C00708D000F0E2F9401B05286CD82168E9
:100850000868C007F6D1086848F23F02CFF21002DC
:10086000D4E90135024004F10C0E9EE8C1511A434F
:100870002A4310433043384340EA0800626A40EAA2
:100880000C00042A40EA0E0320D1D4E90A5E206B52
:100890004EEA0302104308604869BEF1000F20F0E1
:1008A000030040EA050040F0040C15D0B8F5005FE5
:1008B00042D0B8F1000F51D1022D52D0012D47D0B6
:1008C00055B94EE00120BDE8F08100BF0B604869DA
:1008D00020F0070040EA020C6FF00F004AF6AB224E
:1008E00050FA81F0CAF6AA22A0FB02231A0944F6A4
:1008F0003813C0F600039A5C40F2FF335F284FF0D4
:100900003F00C1F814C021EA030100FA02F088BFD9
:100910000431C4E9161288600023012200206365B7
:1009200084F83520BDE8F08103222023032063658D
:1009300084F83520BDE8F081032DCDD80122402375
:100940000120DFE805F0030E030500BFE7E700BF65
:10095000AEF1C070B0FA80F0400904E0032D04D37A
:10096000BAD1CEF300600028B6D001224023012086
:10097000636584F83520BDE8F081000070B590F81B
:1009800034C0BCF1010F46D04FF0010C80F834C0E8
:10099000D0F858E090F835C0BCF1010F38D14FF0D5
:1009A000020C80F835C04FF0000CC0F854C0D0F8ED
:1009B00000C08468056CC06DDCF80060402C26F433
:1009C0008026CCF80060CCF804300B4604BF1346F8
:1009D0000A463F2101FA00F0CCF80830CCF80C2090
:1009E000CEF80800DCF8000040F01600CCF800005B
:1009F0002DB1DCF8000040F00800CCF80000DCF875
:100A0000000040F00100CCF80000002070BD00BFE5
:100A1000002180F83410022070BD0000B0B50446FB
:100A200000F0F4F8054640F20000C2F20000007841
:100A3000611C18BF044400BF00F0E8F8401BA0424E
:100A4000FAD3B0BD2DE9F04F82B000F13E4242F240
:100A5000004502F1FF77C4F202050A224FEAB726E9
:100A6000A84208BF0922092E38BF4FEAB7224FF02B
:100A7000010E002400274FF00008009208E000BF9C
:100A8000023708F10108202F04F1040400F0B480BB
:100A90000E680EFA08F916EA090FF1D0D1F804A091
:100AA0000AF0030BABF10106012E19D80322866868
:100AB00002FA07FECA6826EA0E06BA40324382608E
:100AC0004268CAF3001522EA090205FA08F54FEA5E
:100AD000480C6FEA0E064FF0010E2A4342600BE00D
:100AE0000322BA40D643BBF1030FBC4604D1BC4637
:100AF0004FF0030B24E000BFC2688D68324005FA56
:100B00000CF52A43BBF1020FC26019D16FF003024A
:100B100002EA5802024404F01C030F25D2F820E038
:100B200005FA03FA0D692EEA0A0E05FA03F343EA01
:100B30000E031362D1F804A04FF0010E0AF0030B6C
:100B400002680BFA0CF332401A431AF4403F026079
:100B500096D0002243F644030192C4F202031A68BD
:100B600043F6004C42F480421A601A68C4F2010C49
:100B700002F480420192019A28F003024FF6084ADB
:100B80006244CFF6FF7A52F80A3004F00C060F25C3
:100B9000B540AB43009D05FA06F6334342F80A30F0
:100BA000DCF800204B6842EA0906DD0358BF22EA60
:100BB0000906CCF80060DCF804209D0342EA09062F
:100BC00058BF22EA0906CCF80460DCF80820DD02F0
:100BD00042EA090643F60C4558BF22EA0906CCF85A
:100BE0000860C4F201052A689B0242EA090658BF60
:100BF00022EA09062E6043E702B0BDE8F08F00004C
:100C0000002A08BF090481617047000040F61020E7
:100C1000C2F200000068704790F83D20202A1CBFF7
:100C200002207047242280F83D200268136823F0D8
:100C300001031360536A23F010035362536A19438C
:100C40005162116841F001011160202180F83D10CE
:100C50000020704790F83D20202A1CBF02207047DA
:100C6000242280F83D20026889B2136823F0010332
:100C70001360D2F824C04FF6F07303EA0C03194353
:100C80005162116841F001011160202180F83D108E
:100C90000020704770470000F0B581B0044600683E
:100CA00000254769426894F83E1002F48076FA0500
:100CB00005D5002E1EBF6FF4807242610125BA0572
:100CC00005D5002E1EBF02356FF4007242617A0511
:100CD00016D5AEB1628D94F83D30D4F830C02029DD
:100CE00008BF002A24D06FF48062402905F1040572
:100CF000426101D0102903D1016841F40071016003
:100D0000380507D536B1206808356FF400614161B8
:100D100001E000BF55B1206C40EA05012046216486
:100D200001B0BDE8F04001F0A7BF00BF01B0F0BDC9
:100D300003F0F701212909D0282B08BFBCF1210FAE
:100D400004D06FF4806141610435D9E794F83D1017
:100D5000E26AB2F1080318BF0123203A18BF01224A
:100D6000134208BF28291DD0212935D10021CFF6F3
:100D7000FF71E16221212163202184F83D100021CF
:100D800084F83E10416821F4E06141606FF48061B5
:100D90004161016821F480610160204600F0F6FAAB
:100DA000AEE700BF0021CFF6FF71E162416821F498
:100DB000E06141606FF480614161016821F480610C
:100DC000016000202021206384F83D1084F83E005B
:100DD000204600F0C3F893E76FF4806141618FE72C
:100DE0007047000070B5B8B3044690F83D0028B9CC
:100DF000002084F83C00204600F06AFA242084F8A1
:100E00003D002068016821F001010160016841F4A2
:100E100000410160016821F40041016000F05CFCC8
:100E200048F28041C0F21E0140F60013D4F804E0FD
:100E300088424FF00001C0F23D0348F2A16C4FF030
:100E4000000238BF01219842C0F2010C38BF0122D4
:100E5000E64538BF0A460AB1012070BD4DF68361F0
:100E6000C4F21B31A0FB01122168950C4B684FF4B2
:100E7000967623F03F0343EA9243754344F6D356F4
:100E80004B60C1F262060B6AA5FB0656B50923F05A
:100E90003F03E64538BF950C6A1C1A430A62CA69CB
:100EA00048F2A0664CF6FF73C0F20106B64522EA8E
:100EB00003020BD801384FEA4E03B0FBF3F00130C8
:100EC0006FF31F30042898BF04201EE0A368013888
:100ED00063B119230EFB03F3B0FBF3F001306FF3A2
:100EE0001F3078B100F5804008E000BF0EEB4E03E4
:100EF000B0FBF3F001306FF31F3028B100F5004074
:100F000003E000BF012000E001201043C861086831
:100F1000D4E9072320F0C000104318430860886814
:100F200048F2FF3204F10C0690434CCE18431043B4
:100F3000A5698860C86820F0FF0030432843C86076
:100F4000086840F00100086000202021206484F837
:100F50003D10206384F83E0070BD00007047000023
:100F60002DE9F04784B0984617460E460446FFF731
:100F70004DFE94F83D10202923D105462068816953
:100F8000890719D5FFF742FE401B1928F6D9002022
:100F90002021206384F83D1084F83E00206C04F189
:100FA0003C0940F0200020640220002189F8001054
:100FB00004B0BDE8F08700BFA14619F83C1F012925
:100FC00004D1022004B0BDE8F08700BF012289F8F7
:100FD00000200368DDE90D1A0C9ADB0703D10368D2
:100FE00043F001030360036823F4006303602220DD
:100FF00084F83D00402084F83E00002020646262B6
:101000006185608D314620850020CFF6FF70E0625B
:1010100020463A464346CDF800A0019501F0F2FE85
:1010200020B1012004B0BDE8F08700BF208DA8B139
:1010300002282BD0012835D121680A6822F4806269
:101040000A60002203924A6903928A690392039A12
:101050000A6842F400720A602CE000BF002003908E
:10106000206841690391816903910399016841F402
:1010700000710160202084F83D00002084F83E00CB
:10108000002189F8001004B0BDE8F08721680A68E3
:1010900022F480620A600A6842F400620A60002258
:1010A000039202E00021039121684A690392896951
:1010B000039103990AF1010680B2032818D8022887
:1010C00042D0012856D1BAF1000F00F0AB80206861
:1010D000014651F8142F520600F1A8800868C00696
:1010E00000F1E280FFF792FD401B5045EFD9D0E0C0
:1010F000BAF1000F10D000BF2068014651F8142F3C
:1011000052060ED40868C00600F1CE80FFF77EFDBF
:10111000401B5045F0D9BCE020684169490640F1C8
:10112000B1800069616A0870606A2268411C208D84
:10113000616201382085638D013B638553695B07DC
:1011400040F18080106973E020684169490747D405
:10115000002E59D0BAF1000F00F09980FFF756FD2C
:10116000401B504500F29580206841694907F5D53C
:1011700036E000BF2068416949070FD4002E65D0D2
:10118000BAF1000F00F08380FFF740FD401B50458F
:1011900000F27F80206841694907F5D5016821F494
:1011A000806101600069616A0870606A218D0130A8
:1011B0000139606221852068618D0139618541694D
:1011C00049070DD4002E4FD0BAF1000F5FD0FFF7C2
:1011D0001DFD401B50455CD8206841694907F6D584
:1011E000016841F4007101600069616A0870606A19
:1011F0002268411C6162218D01392185618D01398F
:1012000061851169417014E041694907E8D4416979
:1012100049075CBF41695FEA4171E1D4416949070F
:10122000F2D5DDE72068416949062BD50069616A7E
:101230000870606A218D01306062481E2085618DD2
:101240000139618501047FF437AF13E7416949072C
:10125000A4D4416949075CBF41695FEA41719DD4EB
:1012600041694907F2D599E741694907B8D441690D
:1012700049075CBF41695FEA4171B1D441694907DF
:10128000F2D5ADE750F8141FC90601460CD4FFF79C
:10129000BDFC00202021206384F83D1084F83E002E
:1012A000206C40F020000AE06FF010000860002081
:1012B0002021206384F83D1084F83E00206C2064D7
:1012C0000120002189F8001004B0BDE8F08700007B
:1012D0002DE9F04786B0006845F60047C4F20007E4
:1012E000B84203D006B0BDE8F08700BF002643F641
:1012F00030050196C4F20205286801AC40F00400F4
:10130000286028684FF0120800F00400019001984E
:10131000019628684FF0030940F001002860286812
:101320004FF0040A00F00100019001984FF40070A2
:10133000019007F5D6302146CDE90286CDF8109010
:10134000CDF814A0FFF77EFB4FF48070CDE90108C3
:1013500003A880E8400607F5D2302146FFF772FB6C
:1013600000962869002140F40000286128690022C5
:1013700000F4000000900098492000F083F8492014
:1013800000F070F806B0BDE8F0870000704700007C
:1013900040F2000040F61021C2F20000C2F200014B
:1013A00000780A68104408607047000080B543F672
:1013B0000040C4F20200016841F40071016001685C
:1013C00041F480610160016841F480710160032093
:1013D00000F084F80F2000F005F800F027F8002056
:1013E00080BD000070B540F20006C2F2000640F277
:1013F00008013278C2F200014FF47A730968B3FB36
:10140000F2F20446B1FBF2F1084600F07FFB0F2C2C
:101410004FF0010508D838B94FF0FF3021460022BF
:10142000002500F02FF87460284670BD82B00020BF
:1014300043F640010190C4F202014A6842F480423E
:101440004A604A6802F480420192019A009008685A
:1014500040F080500860086800F0805000900098CC
:1014600002B07047002848BF704700F01F010122FA
:1014700002FA01F14EF200124009CEF2000242F8E7
:101480002010704710B54EF60C5CCEF2000CDCF864
:101490000030C3F3022E8EF00704042C28BF04246E
:1014A000BEF103034FF0FF3E0EFA04F438BF0023F1
:1014B000A14399400EFA03F39A43114300F00F023F
:1014C000043A624409010C3200F16043B0F1FF3F7D
:1014D000C8BF03F56442117010BD00004EF60C51F8
:1014E000CEF200010A684FF6FF031A4060F30A22A9
:1014F00042F0806040F0FD700860704770B582B0C7
:101500000020019043F64000C4F20200016840262A
:1015100041F0805101600068C4F20E2600F0805056
:101520000190019847F204050120C4F200053060E3
:10153000FFF76CFB044600BF2868C00306D4FFF722
:1015400065FB001BB0F57A7FF6D90EE001207060D4
:10155000FFF75CFB044600BF2868800308D4FFF750
:1015600055FB001BB0F57A7FF6D9032002B070BDA1
:10157000002002B070BD00002DE9F041002800F00D
:101580008B8043F60808C4F202080446D8F8F80332
:101590000D4600F00F00884207D288F8F853D8F8BB
:1015A000F80300F00F00A84276D12068810717D514
:1015B000410705D5D8F8001041F4E051C8F80010F3
:1015C000010705D5D8F8001041F46041C8F80010B3
:1015D000D8F80010A26821F0F0011143C8F80010FB
:1015E000C0073FD1D8F8F80300F00F00A84207D990
:1015F00088F8F853D8F8F80300F00F00A8424BD150
:101600002068410707D5D8F80010E26821F4E051BE
:101610001143C8F80010000708D5D8F80000216968
:1016200020F4604040EAC100C8F8000000F07CF8F7
:10163000D8F8001044F62012C1F30311C0F60002DE
:10164000515C40F2080220FA01F140F20400C2F2BB
:1016500000000068C2F200021160FFF7C3FE002024
:10166000BDE8F0816068811E022907D258F8081C85
:1016700089015CBF0120BDE8F08111E0012807D19C
:1016800058F8081C89035CBF0120BDE8F08107E021
:1016900058F8081C890703D40120BDE8F08100BF79
:1016A000D8F8001021F003010843C8F80000FFF744
:1016B000ADFA064641F28837D8F80000616800F0BC
:1016C0000C00B0EB810F8DD0FFF7A0FA801BB84261
:1016D000F2D90320BDE8F08140F2080043F608018A
:1016E000C2F20000C4F202010068096844F6301238
:1016F000C1F38221C0F60002515CC840704700006F
:1017000040F2080043F60801C2F20000C4F20201F0
:101710000068096844F63012C1F34231C0F6000295
:10172000515CC8407047000010B543F60404C4F291
:101730000204606800F00C0008280BD0042819BFD0
:1017400042F20040C0F2F40047F64000C0F27D10C3
:1017500010BD00BF206821682368490247F6400198
:10176000C0F27D1100F03F02C3F388105CBF42F26B
:101770000041C0F2F401A1FB00010023FEF786FD49
:1017800021680222C1F3014102EB4101B0FBF1F0FB
:1017900010BD00002DE9F04182B000286AD0044657
:1017A000007843F60006C007C4F202060BD0B0680A
:1017B00000F00C00042840F0A1803068800302D5BE
:1017C0006068002856D0207880071AD5B06810F0DD
:1017D0000C0F09D0B06800F00C00082840F0A88079
:1017E0007068400200F1A4803068800702D5E0688C
:1017F00001283FD13068216920F0F80040EAC1009B
:1018000030602078000739D4207840074ED4A5698D
:101810005DB3B06800F00C00082840F0BD80012DD9
:1018200028D07068E16900F480028A4222D1216ADE
:1018300000F03F028A421DD147F6C071626A014042
:10184000B1EB821F16D1A26A0023CFF6FF7303EB20
:10185000C23200F440316FF30F0291420AD1E16AC3
:1018600000F07060B0EB016F04D1002002B0BDE861
:10187000F08100BF012002B0BDE8F081606900285E
:1018800040F20000C4F2472076D00121C0F8801E4B
:10189000FFF7BCF9054600BF706F8007B4D4FFF7AF
:1018A000B5F9401B0228F7D9DDE000BF306C10F01D
:1018B00080580AD100200190306C40F08050306494
:1018C000306C00F080500190019847F20007C4F29C
:1018D00000073868C00541D4386840F4807038602B
:1018E000FFF794F9054600BF3868C00536D4FFF706
:1018F0008DF9401B0228F7D9B5E000BFB06800F0B1
:101900000C00082803D1706840023FF556AF6068AC
:10191000B0F5803F07D0B0F5A02F40F08D80306843
:1019200040F480203060306840F4803030608DE0DA
:10193000E068002852D00020C4F247200121016055
:10194000FFF764F9054600BF306880073FF552AFE6
:10195000FFF75CF9401B0228F6D984E0A068012853
:1019600005D005284ED1306F40F004003067306F4D
:1019700040F0010030674FE00021C0F8801EFFF703
:1019800045F90546706F80077FF53EAFFFF73EF9DA
:10199000401B0228F6D966E00027C4F24727002042
:1019A0003866FFF733F9022D05460BD13068800108
:1019B0005ED5FFF72BF9401B02284FF00300F5D945
:1019C00054E700BF306880017FF54FAFFFF71EF985
:1019D000401B02284FF00300F4D947E70020C4F26F
:1019E000472000210160FFF711F9054630688007A4
:1019F0007FF507AFFFF70AF9401B02284FF00300FD
:101A0000F4D933E7316F002821F001013167316FDC
:101A100021F0040131674DD0FFF7F8F8054641F297
:101A2000883700BF306F800756D4FFF7EFF8401BB0
:101A3000B842F7D917E000BF3168002821F480319F
:101A40003160316821F4802131604FD0FFF7DEF83A
:101A5000054600BF306880033FF5B5AEFFF7D6F806
:101A6000401B6428F6D9032002B0BDE8F08100BF16
:101A700004F11C052FCD08430021CFF6FF7140EA89
:101A8000821001EBC3316FF30F0140EA0560084398
:101A9000706001203866FFF7B9F8044630688001AD
:101AA0003FF5E3AEFFF7B2F8001B02284FF003004A
:101AB000F4D9DBE6FFF7AAF8054641F2883700BF04
:101AC000306F800708D5FFF7A1F8401BB8424FF0F0
:101AD0000300F5D9CAE600BFB8F1000F7FF497AE56
:101AE000306C20F08050306491E600BFFFF78EF834
:101AF000054600BF306880037FF565AEFFF786F8C6
:101B0000401B64284FF00300F4D9AFE6411E0020CB
:101B1000B0EB116F1CBF012070474EF21002CEF2E5
:101B2000000251604EF62351CEF20001F0230B70FB
:101B3000072190601160704710B590F83C20012A91
:101B40004FF0020251D080F83D200268D2F804E044
:101B5000D2F808C00C682EF07003234341F2FF74E2
:101B6000C4F20004A24253600EDC40F2FF73C4F2E0
:101B700000039A4216DCB2F1804F2BD040F20043B2
:101B8000C4F2000324E000BF40F2FF33C4F20103BB
:101B90009A4213DC41F60003C4F200039A4219D0C2
:101BA000002313E040F60003C4F200039A4211D070
:101BB00040F60043C4F200030AE000BF44F2000311
:101BC000C4F201039A4205D040F20043C4F201037B
:101BD0009A4204D149682CF0800319439160012195
:101BE000002280F83D1080F83C20104610BD000017
:101BF000002804BF0120704710B5044690F83D004E
:101C000028B9002084F83C00204600F01FF802208C
:101C100084F83D002068211D01F05AFE012084F85F
:101C2000460084F83E0084F83F0084F8400084F8C1
:101C3000410084F8420084F8430084F8440084F8AA
:101C4000450084F83D00002010BD00002DE9F04F54
:101C500081B00446006840F20041C4F200018842AD
:101C600002D001B0BDE8F08F002643F64000009698
:101C7000C4F20200016840F2A00541F002010160D7
:101C8000006846F2700100F002000090C4F2020108
:101C90000098C2F200054FF020684020C5E9001806
:101CA00005F108014FF4806C4FF4006281E84110A7
:101CB00005F114004FF400534FF480778CC04FF4BB
:101CC000403905F120004FF0040A4FF0030B80E883
:101CD000000E2846C5E90B66FEF79EFD002818BFDA
:101CE000FEF7A8FB46F270006562A563AC63C4F220
:101CF000020040F200154830C2F20005C5E90008B4
:101D00004020C5E902064FF4806028614FF400606E
:101D100068614FF40050A8614FF4807005F11C0118
:101D200081E8010E2846C5E90B66FEF775FD00281F
:101D300018BFFEF77FFBE562AC6301B0BDE8F08F32
:101D400080B590F83C20012A4FF0020200F0C280DA
:101D500080F83D20D0F800C04FF67772DCF80830EC
:101D600023EA0202CCF808200B684F2B28DC1F2B3B
:101D700044DD202B45D0302B43D0402B40F0AC80AD
:101D8000D1F804E0C968DCF82030DCF8202022F02B
:101D90000102CCF82020DCF8182022F0F00242EA00
:101DA000011123F00A0242EA0E02CCF81810CCF816
:101DB0002020DCF8081041F0470121F0300180E0DC
:101DC0006F2B27DDB3F5005F48D0B3F5805F7AD085
:101DD000702B40F08180D1E901E3C968DCF808206C
:101DE00043EA0E0322F47F4243EA01211143CCF877
:101DF0000810DCF8081041F0770162E00BB1102BFD
:101E00006AD1DCF8081021F07001194341F0070194
:101E100057E000BF502B35D0602B5DD1D1F804E0E6
:101E2000C968DCF8203023F01003CCF82030DCF84F
:101E30001830DCF8202023F4704322F0A00243EA9B
:101E4000013142EA0E12CCF81810CCF82020DCF850
:101E5000081041F0670121F0100132E0D1E901E3FF
:101E6000C968DCF8082043EA0E0322F47F4243EA03
:101E700001211143CCF80810DCF8081041F480412E
:101E80001FE000BFD1F804E0C968DCF82030DCF8BE
:101E9000202022F00102CCF82020DCF8182022F0CB
:101EA000F00242EA011123F00A0242EA0E02CCF8E3
:101EB0001810CCF82020DCF8081041F0570121F070
:101EC0002001CCF808100022012180F83D100021EB
:101ED00080F83C10104680BD0122F5E770470000F5
:101EE0002DE9F04190F83C30012B04BF0220BDE801
:101EF000F0814FEAB202032A00F2FC80DFE802F030
:101F0000023E7EBE036840F200471A6A43F48065D1
:101F100022F001021A621C6A1A46D3F804E052F851
:101F200018CF8E6824F00204C4F20107BD4244EACF
:101F3000060405D1CE6824F00C0426F004063443D0
:101F40000E68BD4207D1D1E905572EF4407E45EA1F
:101F50000E0545EA070E2CF073073743C3F804E07B
:101F60009F614F6809695F631C629F6947F00807BA
:101F70009F619F6927F004079F61B1E0036840F209
:101F800000481A6A43F4806522F010021A621C6A43
:101F90001A46D3F804E052F818CF8F6824F02004D2
:101FA000C4F20108454544EA071407D1CF686FF031
:101FB000400624F0C00406EA071634430F6845457E
:101FC00007D1D1E905562EF4406E4EEA850545EA63
:101FD000860E2CF4E64646EA0727C3F804E09F6124
:101FE0004F6809699F631C629F6947F400679F619E
:101FF0009F6927F480679F6171E000BF036840F22A
:1020000000481A6A43F4806522F480721A621C6ADE
:102010001A46D3F804E052F81CCF8F6824F40074F9
:10202000C4F20108454544EA072408D1CF6840F2CC
:10203000FF463F0224F4406427EA060634430F6853
:10204000454507D1D1E905562EF4405E4EEA051507
:1020500045EA061E2CF073063743C3F804E0DF613F
:102060004F680969DF631C62DF6947F00807DF61B9
:10207000DF6927F00407DF6132E000BF036840F248
:1020800000451A6A43F4806722F480521A621A46A5
:10209000D3F820C05C6852F81CEFD1F800808E683D
:1020A000C4F20105AF4204D14D6924F4804444EAEE
:1020B00085142CF4005747EA06372EF4E64646EA24
:1020C00008265C60DE614E6809691E641F62DF6974
:1020D00047F40067DF61DF6927F48067DF61090289
:1020E0001368194311600021002280F83C20084643
:1020F000BDE8F0810121002280F83C200846BDE8BF
:10210000F0810000002804BF0120704710B504468C
:1021100090F83D0028B9002084F83C00204600F0EB
:102120001FF8022084F83D002068211D01F0D0FB3B
:10213000012084F8460084F83E0084F83F0084F8CB
:10214000400084F8410084F8420084F8430084F899
:10215000440084F8450084F83D00002010BD0000D4
:1021600070470000704700007047000041B1082927
:1021700010D0042914BF00F1410200F13F020BE02E
:1021800090F83E20012A1CBF01207047022280F8EF
:102190003E2013E000F140021278012A1CBF01200A
:1021A00070470222082907D0042914BF80F8412073
:1021B00080F83F2002E000BF80F84020006801F076
:1021C0001F010122036A02FA01F123EA01020262FD
:1021D000026A114341F2FF72C4F2000290420162AE
:1021E0000CDC40F2FF71C4F20001884214DCB0F153
:1021F000804F37D040F2004116E000BF40F2FF317F
:10220000C4F20101884215DC41F60001C4F200016C
:10221000884227D0002115E040F60001C4F20001F9
:1022200088421FD040F60041C4F20001884219D014
:102230001FE000BF44F20001C4F20101884211D046
:1022400040F20041C4F20101884212D1416C40F2D7
:10225000004340F48062C4F2010341F400419A4219
:10226000416406D1816801F00701062904BF0020FE
:102270007047016841F001010160002070470000D3
:10228000B0B50C46054649B1082C13D0042C14BF38
:1022900005F1410005F13F000EE000BF95F83E005A
:1022A000022804BF0220B0BD05F13E0000780128DD
:1022B0001BD118E005F140000078022804BF02207D
:1022C000B0BD082C0AD0042C14BF05F1410005F163
:1022D0003F000078012808D105E000BF05F140006B
:1022E0000078012801D11AB913B10120B0BD00BF97
:1022F00002206CB1082C13D0042C14BF85F84100C7
:1023000085F83F004FEAB40003280FD9EDE700BF7E
:1023100085F83E004FEAB400032807D9E5E700BF7F
:1023200085F840004FEAB4000328DED8DFE800F06B
:1023300002224264686A43F60D21C0F60001C163BF
:10234000686A43F67921C0F600010164686A43F6C1
:10235000B121D5F800C0C0F60001C164686A0CF173
:10236000340C11466246FEF709FB0028BDD14FF43C
:10237000007161E0A86A43F60D21C0F60001C16357
:10238000A86A43F67921C0F600010164A86A43F601
:10239000B121D5F800C0C0F60001C164A86A0CF1F3
:1023A000380C11466246FEF7E9FA00289DD14FF439
:1023B000806141E0E86A43F60D21C0F60001C16387
:1023C000E86A43F67921C0F600010164E86A43F641
:1023D000B121D5F800C0C0F60001C164E86A0CF173
:1023E0003C0C11466246FEF7C9FA00287FF47DAF27
:1023F0004FF4006120E000BF286B43F60D21C0F6CA
:102400000001C163286B43F67921C0F60001016425
:10241000286B43F6B121D5F800C0C0F60001C164B5
:10242000286B0CF1400C11466246FEF7A7FA002813
:102430007FF45BAF4FF480512868C2681143C160DC
:1024400004F01F010122036A02FA01F123EA0102EA
:102450000262026A114341F2FF72C4F2000290422A
:1024600001620BDC40F2FF71C4F20001884213DC10
:10247000B0F1804F36D040F2004115E040F2FF311C
:10248000C4F20101884215DC41F60001C4F20001EA
:10249000884227D0002115E040F60001C4F2000177
:1024A00088421FD040F60041C4F20001884219D092
:1024B0001FE000BF44F20001C4F20101884211D0C4
:1024C00040F20041C4F20101884212D1416C40F255
:1024D000004340F48062C4F2010341F400419A4297
:1024E000416406D1816801F00701062904BF00207C
:1024F000B0BD016841F0010101600020B0BD0000E5
:102500007047000070470000B0B582B00446006814
:102510000168C368426901F02F05202D03F02005F2
:1025200006D12DB1204602B0BDE8B04001F0FCBAA2
:102530005FEA017C1EBF02F0010E03F4907212EB01
:102540000E0255D1226B012A05D111F0100218BFDD
:1025500013F0100236D10A0622D513F080021FD0E4
:1025600094F83D10212941D1A168B1F5805F03D1D4
:102570002169002900F06C82216A4A1C22620978D4
:102580004160E18C01390A04E1842FD1C16821F056
:102590008001C160C16841F04001C16002B0B0BDBE
:1025A000490623D513F0400120D0C16821F0400135
:1025B000C1602021204684F83D1002B0BDE8B04043
:1025C00000F0BEBA002101910168019141680191BA
:1025D00001994169490600F18B80A18DE28DE38D5F
:1025E000002B1CBF891A5FEA01420CD102B0B0BDBA
:1025F000CA0718BF13F4807240F032814A0700F115
:1026000035813AE1206850E8030F226820F4907089
:1026100042E80303DBB1206850E8030F226820F48E
:10262000907042E8030393B1206850E8030F2268DA
:1026300020F4907042E803034BB1206850E8030F88
:10264000226820F4907042E80303002BDAD120685E
:1026500050E8050F226820F0010042E80503DBB1D5
:10266000206850E8050F226820F0010042E80503C9
:1026700093B1206850E8050F226820F0010042E87D
:1026800005034BB1206850E8050F226820F00100D7
:1026900042E80503002BDAD1202084F83E00002018
:1026A0002063206850E8030F226820F0100042E801
:1026B0000303DBB1206850E8030F226820F010000C
:1026C00042E8030393B1206850E8030F226820F02A
:1026D000100042E803034BB1206850E8030F226862
:1026E00020F0100042E80303002BDAD189B2B0E0F9
:1026F000A26B11684B689DB2002D3FF477AFA18D9E
:102700008D42BFF473AFE385D269B2F5807F00F0EC
:102710009D8050E8030F216820F4807041E8030297
:10272000E2B1206850E8030F216820F4807041E88E
:1027300003029AB1206850E8030F216820F48070EA
:1027400041E8030252B1206850E8030F216820F4E9
:10275000807041E803020AB12068DAE7206850E897
:10276000050F216820F0010041E80502DAB1206878
:1027700050E8050F216820F0010041E8050292B100
:10278000206850E8050F216820F0010041E80502AB
:102790004AB1206850E8050F216820F0010041E8A7
:1027A0000502002ADAD1206850E8050F216820F0E0
:1027B000400041E80502DAB1206850E8050F2168C1
:1027C00020F0400041E8050292B1206850E8050F72
:1027D000216820F0400041E805024AB1206850E835
:1027E000050F216820F0400041E80502002ADAD1F7
:1027F000202084F83E0000202063206850E8030F6A
:10280000216820F0100041E80302DAB1206850E8A6
:10281000030F216820F0100041E8030292B1206804
:1028200050E8030F216820F0100041E803024AB18C
:10283000206850E8030F216820F0100041E80302EF
:10284000002ADAD1A06BFDF7ABFEA18DE08D081A4E
:1028500081B2204602B0BDE8B040FFF751BE00BFD4
:10286000226C42F0010222644A0706D5BEF1000F35
:1028700003D0226C42F0020222648A0706D5BEF120
:10288000000F03D0226C42F004022264BCF1000F5E
:1028900006D555EA0E0203D0226C42F008022264EB
:1028A000226C002A3FF4A2AE11F0200118BF002DC7
:1028B00003D0204601F038F920684169226C01F00C
:1028C000400102F00802891800F0A28050E8030FCE
:1028D000216820F4907041E80302C2B3206850E8F8
:1028E000030F216820F4907041E803027AB3206856
:1028F00050E8030F216820F4907041E8030232B3DE
:10290000206850E8030F216820F4907041E803022A
:10291000EAB12068DAE700BF206850E8050F2168B7
:1029200020F0010041E80502DAB1206850E8050F07
:10293000216820F0010041E8050292B1206850E8CA
:10294000050F216820F0010041E805024AB1206826
:1029500050E8050F216820F0010041E80502002A37
:10296000DAD1206B012824D1206850E8030F2168B8
:1029700020F0100041E80302DAB1206850E8030FAC
:10298000216820F0100041E8030292B1206850E86D
:10299000030F216820F0100041E803024AB12068CB
:1029A00050E8030F216820F0100041E80302002ADC
:1029B000DAD1202084F83E0000202063206841699D
:1029C00049063FD550E8050F216820F0400041E856
:1029D00005022AB3206850E8050F216820F0400066
:1029E00041E80502E2B1206850E8050F216820F0B7
:1029F000400041E805029AB1206850E8050F2168BF
:102A000020F0400041E8050252B12068DAE700BF3B
:102A10002046FFF777FD0020206402B0B0BD00BF64
:102A2000A06B78B143F61D31C0F600010165FDF7DA
:102A300001FE00283FF4DAADA06B016D02B0BDE8E5
:102A4000B0400847204602B0BDE8B040FFF75ABD8D
:102A5000216A31F8022B6FF35F224260216290E518
:102A6000002804BF0120704710B5044690F83D00CF
:102A700028B9002084F83C00204600F021F82420EA
:102A800084F83D002068C16821F40051C1602046EF
:102A900001F0CAF82068016921F49041016141699F
:102AA00021F02A014161C16841F40051C160002058
:102AB0002021206484F83D1084F83E1010BD0000F1
:102AC00080B586B0016847F60000C4F2000081427C
:102AD00002D006B080BD00BF002143F63002019154
:102AE000C4F20202136900F5CC3043F08043136155
:102AF000136903F080430193019B0191136843F034
:102B000010031360126802F010020192019A4FF450
:102B1000C07201920222CDE9022103210491082111
:102B2000059101A9FDF78EFF522000210022FEF73A
:102B3000A9FC5220FEF796FC06B080BD704700004D
:102B400070470000FEE7000040F26010C2F2000093
:102B5000FEF7A2B810B581B000210091806B40F261
:102B60000801C2F2000190F83DC009684BF2895299
:102B7000C908C1F2F842A1FB0212110A23225143F3
:102B80000091009911B30099013900910168096819
:102B900089051FD50099C9B10099013900910168D3
:102BA0000968890516D5009981B10099013900910C
:102BB0000168096889050DD5009939B10099013975
:102BC0000091016809688905DBD403E0016C41F0DC
:102BD00020010164446B4FF0000E002C1CBF00214B
:102BE000E163816B00291CBF0022CA630268002CCC
:102BF000136823F480631360A0F82AE018BFC4F8B8
:102C000050E000291CBF00230B65116821F0010171
:102C1000116090F83D1060290CD1202180F83D1002
:102C2000002180F83E10016401B0BDE81040FEF7BD
:102C300031B800BF0CF02801282911D1116841F0EA
:102C400001011160116841F480611160002101638C
:102C5000282180F83D1001B0BDE81040FEF7C0B853
:102C6000202180F83D10002180F83E1001B0BDE821
:102C70001040FEF7B5B8000010B5044690F83D10BE
:102C800090F83E00B0F1100218BF0122403818BF82
:102C90000120024208BF222934D001F02800282850
:102CA0003AD100202063282084F83D002068416844
:102CB000090542D5416821F400614160606B90F8DC
:102CC0003510012958D1A06B42F65531C0F60001EC
:102CD0000165FDF7AFFC002861D020684169490615
:102CE00006D50069616A0870616A20680131616215
:102CF000016821F001010160202084F83D00A06BF3
:102D00004BE000BF2068026822F400620260426863
:102D1000120505D50CE000BF20684268120507D4F3
:102D2000602905D0202184F83D10002184F83E1050
:102D30000021216341680905BCD494F83D10602945
:102D400050D1202184F83D100021216441694906B9
:102D500006D50069616A0870616A206801316162A4
:102D6000016821F0010101602046FDF793FF206C0E
:102D7000000717D11BE000BF42F65531C0F6000135
:102D80000165FDF757FC50B12168606B0A6822F0BD
:102D900001020A60202184F83D10016D8847206CF3
:102DA000000704D02068416821F4E061416094F894
:102DB0003D00216C490758BF10BD282810D10020C4
:102DC000CFF6FF70E06200212020216384F83D00EF
:102DD000204684F83E10BDE81040FEF7BFB800BFA3
:102DE00010BD00BF4169490605D50069616A0870D8
:102DF000606A013060622046FDF7F2FF206C000738
:102E0000D0D1D4E72DE9F04383B004460068994659
:102E10000368904643F48062026002680B9D42F4AE
:102E20008072026042690A9ED2070F461DD1711C52
:102E300011D0002E00F03681FDF7E8FE401BB042B5
:102E400000F2328120684169C907F5D00DE000BF6A
:102E50004169C90709D14169C90706D14169C90753
:102E600004BF41695FEAC171F2D007F0FE07076154
:102E70004169890738D44169721C01F4806111D01D
:102E800049BB002E00F03A81FDF7C0FE401BB04266
:102E900000F2368120684169890725D441694905D6
:102EA000F2D518E0B9B9416989071DD441694905CE
:102EB00011D44169890717D4416949050BD4416987
:102EC000890711D44169490505D4416989070BD4A3
:102ED00041694905E7D5016841F4007101606FF46B
:102EE0008061416104200CE100210291014651F80A
:102EF000142F02924A680292029A0A68120620D49B
:102F0000002E00F0AB80721C51D10A68520500F10E
:102F1000AD800A68120614D40A68520500F1A68032
:102F20000A6812060DD40A68520500F19F800A68EB
:102F3000120606D40A68520500F198800A68120643
:102F4000E3D5B9F1010F45D04FEA182101610146DF
:102F500051F8142F12063DD4002E00F07F80721C11
:102F60002AD10A68520500F181800A68120631D41C
:102F70000A6852057AD40A6812062BD40A685205E8
:102F800074D40A68120625D40A6852056ED40A68F9
:102F90001206E6D51EE000BFFDF738FE401BB0422A
:102FA00061D82068014651F8142F1206C9D4086868
:102FB0004005F1D55AE000BF0868400556D4FDF73A
:102FC00025FE401BB0424ED82068014651F8142F10
:102FD0001206F1D55FFA88F10161014651F8142F0C
:102FE00012061AD4D6B3721C33D10A6852053DD4E6
:102FF0000A68120611D40A68520537D40A68120604
:103000000BD40A68520531D40A68120605D40A683E
:1030100052052BD40A681206E7D50168002241F454
:103020008071016020464FF001113346009500F099
:1030300079F8002850D02068006844E0FDF7E6FDEC
:10304000401BB0420FD82068014651F8142F1206D9
:10305000E3D408684005F1D508E000BF08684005E2
:1030600004D4FDF7D3FD202004E000BF6FF480609E
:103070000860042000212022216384F83D2084F888
:103080003E10226C1043206484F83C10206C04280D
:1030900043D12068016841F400710160012003B050
:1030A000BDE8F083FDF7B2FD00202021206384F805
:1030B0003D1084F83E00216C41F02001216421681C
:1030C00084F83C000868C00544BF4FF400702064D9
:1030D000032003B0BDE8F083206847F001010161DF
:1030E0000221C0F20101204632462B4600F0C2F810
:1030F000002818BF012003B0BDE8F083FDF786FD6E
:10310000202000212022216384F83D2084F83E10F5
:10311000226C1043206484F83C10012003B0BDE809
:10312000F08300002DE9F04105461446DDF81880D3
:1031300001F47F002A681E46B0F5803F8FB241D16E
:1031400050693840C01BB0FA80F04009A0427BD1E2
:10315000701C2DD0002E7BD0FDF758FDA0EB080091
:10316000B04277D8286840693840C01BB0FA80F078
:103170004009A042F0D00020BDE8F08150693840FD
:10318000C01BB0FA80F04009A0425DD150693840C0
:10319000C01BB0FA80F04009A04255D150693840B8
:1031A000C01BB0FA80F04009A0424FF000005FD190
:1031B00050693840C01BB0FA80F04009A042DDD011
:1031C00042E000BF90693840C01BB0FA80F040096F
:1031D000A04239D1701C1FD0D6B300BFFDF716FD39
:1031E000A0EB0800B04235D8286880693840C01B81
:1031F000B0FA80F04009A042F0D00020BDE8F08194
:1032000090693840C01BB0FA80F04009A0424FF0EE
:10321000000018BFBDE8F08190693840C01BB0FACB
:1032200080F04009A0420FD190693840C01BB0FA2D
:1032300080F04009A04207D190693840C01BB0FA25
:1032400080F04009A042DBD00020BDE8F08100BF43
:10325000FDF7DCFC00202021286385F83D1085F86F
:103260003E00296C41F02001296485F83C000120D2
:10327000BDE8F081F0B581B0044600681D464369A1
:103280008FB203EA0701B94202D1002001B0F0BDBC
:1032900041691646013201F480610FD059BB9EB3DB
:1032A000FDF7B4FC401BB04230D82068416939407A
:1032B000B942EAD041694905F2D51CE0D9B9416962
:1032C0003940B942E1D04169490514D441693940D6
:1032D000B942DAD0416949050DD441693940B94252
:1032E000D3D04169490506D441693940B942CCD0AF
:1032F00041694905E3D5016841F4007101606FF44B
:1033000080614161042002E0FDF780FC2020002163
:103310002022216384F83D2084F83E10226C104363
:10332000206484F83C10012001B0F0BD80B540F26B
:10333000780046F20041C2F20000C4F2000100230E
:10334000102280E80E00C0E90333C0E9053383830F
:10335000FDF776F8002808BF80BDBDE88040FDF786
:1033600069B8000080B582B00020019043F63000BB
:10337000C4F202000168002241F4001101600068FB
:10338000002100F40010019001980F20FEF77AF858
:103390000F20FEF767F82F2000210022FEF772F8B9
:1033A0002F2002B0BDE88040FEF75CB82DE9F04F59
:1033B00087B0002643F6300006960196C4F202005C
:1033C0000168002741F0100101600168C4F20207A2
:1033D00001F01001019101990196016807F58054EF
:1033E00041F0800101600168002201F0800101913B
:1033F000019901960168182541F0010101600168F9
:1034000001F00101019101990196016841F0040167
:103410000160016801F004010191019901960168C0
:1034200041F002010160016801F00201019101997E
:103430000196016841F0080101600068182100F060
:103440000800019001982046FDF7DAFB384648F263
:103450001001002248F21008FDF7D2FB07F50060CA
:10346000102100220090FDF7CBFB07F5406948468C
:1034700040F201410022FDF7C3FB0295012002AD9D
:10348000CDE90306204629460596FDF7DBFA202004
:1034900002904FF0020A4FF0030B20462946CDE977
:1034A00003A60596CDF818B0FDF7CCFA08200690D3
:1034B00038462946CDE902BACDE9046BFDF7C2FAD8
:1034C00041F20C0002904FF48810CDE90306384613
:1034D0002946FDF7B7FACDF808804FF001083846C5
:1034E0002946CDE903860596FDF7ACFAE020CDE943
:1034F000020A0520069038462946CDE9046BFDF7FF
:10350000A1FA1020CDE90208DDF8008029464046E6
:10351000CDE90466FDF796FA4FF4004002904FF4AF
:103520008810CDE9030620462946FDF78BFA4FF4B3
:1035300040600290122003A981E84108042007F5A9
:103540008064069020462946FDF77CFA4FF44070CF
:10355000CDE9020A0720069048462946CDE9046BCA
:10356000FDF770FA40F2014002900120CDE9030618
:10357000484629460596FDF765FA4FF47040CDE9B7
:10358000020A48462946CDE90466CDF818A0FDF7A1
:1035900059FA4FF4E050CDE9020A06200690404661
:1035A0002946CDE9046BFDF74DFA802002904FF4D7
:1035B0008810CDE9030620462946FDF743FA07B0F7
:1035C000BDE8F08F80B540F2601045F60041C2F2D0
:1035D0000000C4F2000148F2A06200234FF4804CC6
:1035E000C0F2010280E80E00C0E9033CC0E90533E7
:1035F000C0E90733FDF7F6FB002818BFFCF71AFFF8
:1036000040F26010C2F200000021FDF705FB002827
:1036100018BFFCF70FFF40F26010C2F2000000215B
:10362000FDF718FB002808BF80BDBDE88040FCF70F
:1036300001BF00002DE9F04194B040F2B41040F217
:1036400000450021C2F20000FF23C4F200050E91E4
:10365000CDE90C110991CDE90711CDE90511CDE9AD
:103660000311CDE901114FF47A72C0E9021301612F
:103670008021C0E900528161FEF7BAFA002818BF24
:10368000FCF7D8FE4FF480500B9040F2B410C2F219
:1036900000000BA9FEF754FB002818BFFCF7CAFE78
:1036A00040F2B410C2F20000FEF72CFD002818BF53
:1036B000FCF7C0FE40F2B4100024C2F2000008A9DA
:1036C000CDE90844FEF738FA002818BFFCF7B2FE2F
:1036D0006020CDE9010440F2B410C2F2000001A95B
:1036E000002203940594FEF7FBFB002818BFFCF7AB
:1036F000A1FE40F2B410C2F2000001A90422FEF7BC
:10370000EFFB002818BFFCF795FE40F2B410C2F2A0
:10371000000001A90822FEF7E3FB002818BFFCF710
:1037200089FE40F2B414C2F2000401A920460C2222
:10373000FEF7D6FB002818BFFCF77CFE2068A842E5
:1037400002D014B0BDE8F0814FF0000843F630001D
:10375000CDF83C80C4F20200016805F5003441F068
:103760000201016000680FAD00F002000F900F9899
:1037700001200F900227032620462946CDE9107824
:10378000CDE91267FDF75EF932200F901220CDE9E6
:10379000100820462946CDE91267FDF753F914B009
:1037A000BDE8F08180B540F2FC1047F60001C2F29E
:1037B0000000C4F2000100234FF00C0C4FF4E13282
:1037C00080E80E00C0E90333C0E905C3C361FFF719
:1037D00047F9002808BF80BDBDE88040FCF72ABE3D
:1037E000FEE70000FEE700007047000070470000A1
:1037F000FDF7CEBD80B592B0002043F64001CDE983
:103800000A00CDE908000590CDE90300CDE90100EB
:103810000090C4F202010A6842F080520A6009680E
:1038200001F0805100910099009047F20000C4F22D
:103830000000016841F44041016000684FF48001DC
:1038400000F4404000900098012006904FF4803032
:103850000D911921079002200E914FF4B4710C9034
:10386000CDE90F100720119006A8FDF793FF28B1AE
:10387000EFF3108072B600BFFEE700BFFDF73EFE1B
:1038800020B1EFF3108072B6FEE700BF0F20019069
:1038900002200290002003904FF4A05004904FF4B7
:1038A0008050059001A80521FDF766FE20B1EFF3D9
:1038B000108072B6FEE700BF12B080BD4EF6885091
:1038C000CEF20000016841F4700101607047000011
:1038D00010B540F6FF3E0368C4F2000E40F2004C03
:1038E0007045C4F2010C27DCB0F1804F31D040F2BA
:1038F0000042C4F2000290422BD040F60002C4F213
:103900000002904225D041F6FF72C4F200029042BC
:1039100029DC70453CDCB0F1804F5FD040F20042C2
:10392000C4F20002904259D040F60002C4F20002F4
:10393000904253D056E000BF40F60042C4F200026D
:10394000904206D0604504D00022C4F201029042A9
:10395000D9D14A6823F07003134341F6FF72C4F2D1
:1039600000029042D5DD43F6FF72C4F2010290429C
:1039700022DC42F20002C4F2000290422ED0002269
:10398000C4F20102904229D0604527D02AE000BF4E
:1039900040F60042C4F2000290421FD041F60002FD
:1039A000C4F20002904219D041F60042C4F2000273
:1039B000904213D016E000BF44F20002C4F20102AC
:1039C00090420BD044F60002C4F20102904205D0AE
:1039D00044F20042C4F20102904203D1CA6823F4C7
:1039E0004073134323F080024B69D1F800E08C68E8
:1039F0001A430260C46240F48062C0F828E0624565
:103A000004BF096901630121416110BD10B5846BD8
:103A1000616A814212D0A16A814217D0E16A814273
:103A20001CD0216B814220D1C06908210028217758
:103A300004BF012084F8410017E000BFC1690120E4
:103A40000029207708BF84F83E000EE0C0690221FB
:103A5000217750B9012084F83F0006E0C0690421B5
:103A6000217710B9012084F840002046FEF77AFB48
:103A70000020207710BD000010B5846B616A814280
:103A80000AD0A16A814209D0E16A814208D0216B43
:103A9000814207D1082004E0012002E0022000E07A
:103AA000042020772046FEF75FFB0020207710BD22
:103AB00010B5846B616A81420CD0A16A81420FD03B
:103AC000E16A814212D0216B814215D0012084F835
:103AD0003D0016E00120207784F83E0011E000BF91
:103AE00002202077012084F83F000AE0042020779C
:103AF000012084F8400004E008202077012084F8A9
:103B000041002046FEF7EAF90020207710BD0000B2
:103B100040F2FC10C2F20000FEF7F6BC806B002100
:103B2000C185C184FEF7EEBC81B090F83E10222919
:103B300020D18368B3F5805F08D10169002965D081
:103B400000F128010A6803685B680AE0014651F841
:103B5000282F13B90369002BF5D003685B6803F0C5
:103B60007F0313700A6801320A60C18D01390A04AB
:103B7000C18501D001B070470168CA6822F02002F7
:103B8000CA60CA6822F48072CA604A6922F00102DF
:103B90004A61202280F83E20026B012A40D1002297
:103BA000026300BF51E8031F026821F0100142E8E0
:103BB00003130168DBB151E8031F026821F0100113
:103BC00042E80313016893B151E8031F026821F032
:103BD000100142E8031301684BB151E8031F02686A
:103BE00021F0100142E803130168002BDAD10A68C2
:103BF000D20606D5002200920A6800924968009118
:103C00000099818D01B0FEF77BBC00BF0168826A1C
:103C100049686FF35F2122F8021B8262A5E700BFAB
:103C200001B0FEF78BBF000010B504460068D4E970
:103C300002C22369016921F44051114301616269A3
:103C400043EA0C01E3691143C268194349F20C636A
:103C50009A431143C1604169A26921F4407141F264
:103C60000043114340F48062C4F201039A4241616F
:103C700002D1FDF745FD01E0FDF72EFDE169636826
:103C80001922B1F5004FA0FB02011FD15A00DB0F32
:103C9000FCF7FCFA48F21F51C5F2EB11A0FB01231F
:103CA0005A096FF0630302FB0300322303EBC000E9
:103CB000A0FB01014FF4F87000EA111000EB0210B4
:103CC000C1F3421108442168886010BD9A009B0F1F
:103CD000FCF7DCFA48F21F51C5F2EB11A0FB0123FF
:103CE0005A096FF0630302FB0300322303EB001059
:103CF000A0FB0101F02000EA511000EB0210C1F31B
:103D0000431108442168886010BD0000FEE70000F0
:103D100084B0FDF74BFBFFF76DFDFFF747FBFFF7A7
:103D200005FBFFF71FFBFFF73DFDFFF783FCFFF7E8
:103D300049FC9FED870B40F2402059EC108B9FED22
:103D4000860BC2F200009FED8E8AA0F10A040425C2
:103D500057EC106BB7EE009A281F80B200F03AFCC7
:103D600042464B4600F04AFC32463B4600F0D8FA49
:103D700000F0A4FA00EE100A00F01AF930EE090A79
:103D800020EE080ABDEEC00A10EE100A24F80A0F51
:103D9000E81E80B200F01EFC42464B4600F02EFCAE
:103DA00032463B4600F0BCFA00F088FA00EE100AFA
:103DB00000F0FEF830EE090A20EE080ABDEEC00A57
:103DC00010EE100A6080A81E80B200F003FC42468C
:103DD0004B4600F013FC32463B4600F0A1FA00F0DF
:103DE0006DFA00EE100A00F0E3F830EE090A20EE5A
:103DF000080ABDEEC00A10EE100AA080681E80B24C
:103E000000F0E8FB42464B4600F0F8FB32463B46EA
:103E100000F086FA00F052FA00EE100A00F0C8F83E
:103E200030EE090A20EE080ABDEEC00A10EE100AB4
:103E3000E080A8B200F0CEFB42464B4600F0DEFB2D
:103E400032463B4600F06CFA00F038FA00EE100AF9
:103E500000F0AEF830EE090A20EE080ABDEEC00A06
:103E6000053510EE100AB5F57B7F20817FF474AF25
:103E700040F2B414C2F200042068642181624FF45D
:103E80007A71C162C16A01314163C16A01318163E2
:103E90000021C163C16A0131016420460C21FEF793
:103EA00065F940F24022C2F20002204600214FF4A0
:103EB0007A73FEF7E5F96420FCF7B0FD40F2700775
:103EC00040F260149FED2F8A9FED259B9FED26AB5E
:103ED0009FED27BB9FED28CB40F20C054FF0FF383C
:103EE0000226C2F20007C2F20004C2F2000500BFBF
:103EF0002046902100220123CDE90076CDF80880EC
:103F0000FDF72EF83988287008BA000C00EE100A68
:103F1000B8EE400A20EE080A10EE100A00F06CFC21
:103F200053EC192B00F06AFB53EC1A2B00F0F8F954
:103F300053EC1B2B00F062FB53EC1C2B00F0F0F950
:103F400000F0BCF978606420FCF768FDD0E700BFA2
:103F50006E861BF0F92119400000000000408F40E0
:103F6000FCA9F1D24D6200407B14AE47E17A743F68
:103F7000333333333333304000000000000024403B
:103F80000080F9430000003A4100080218BF0420F5
:103F90000A0E18BF40F001004FF07F4232EA0101E3
:103FA00008BF40F00200012808BF0520704700004C
:103FB00000B510EE101A2DED028B81B0524A684602
:103FC000B2EB410F2ED94FF0E640B0EB410F94BF5A
:103FD00000204FF0FF3000900098B0EE408A00289B
:103FE0006ADB10F0010F4BD068EE080A9FED471A0C
:103FF0009FED470A00EE810A9FED461A10F0020F6E
:1040000000EE801AB7EE000A00EE810A02BF01B08E
:10401000BDEC028B00BD00BF01B0B1EE400ABDECAB
:10402000028B00BD3C4B21F00042934241D911F07C
:10403000004FDFED3A0A20EE201ADFED390A19BFF2
:1040400031EE601A71EE200A31EE201A71EE600A2C
:10405000BDEEE01A11EE100A9FED321A00F00300D7
:1040600000EEC10A9FED301A009000EEC10A9FEDEC
:104070002F1A00EEC10A9FED2E1A00EEC10AABE71F
:1040800028EE080A9FED2B1ADFED2B0A10F0020F25
:1040900040EE010A9FED291A00EE201A61EE000A97
:1040A000B0EE480A08EE200AB6D101B0BDEC028B92
:1040B00000BD00F059F88FE718EE100A4000B0F18B
:1040C0007F4F0DD218EE100AFFF75EFF042808BFDD
:1040D00000F042F8B0EE480A01B0BDEC028B00BD22
:1040E00009D10120FCF752F901B0BDEC028B5DF85B
:1040F00004EB00F029B801B0B0EE480ABDEC028B29
:104100005DF804EB00F01CB8B61F927EB93AB2BA63
:10411000CA9F2A3DDDFFFFBE490E494683F9223F73
:104120000000004B0000C93F00A0FD390020A23371
:104130001A61342C336D4CB9DA82083CA0AA2ABE2D
:1041400030EE000A70470000DFED020A80EEA00AA0
:1041500070470000000000009FED020A20EE000AF8
:1041600070470000000000102DE9F0014FF07F4281
:10417000B2EB410F9FBF4FF0FF310160BDE8F0018E
:1041800070474FF0004242EA0123C1F3C752783A28
:10419000551112F01F0C434CCCF120067C44C1F3A6
:1041A000C752A2F178024FEA621204EB820254F87D
:1041B000254008BFD2E9015612D0556804FA0CF424
:1041C00025FA06F73C43976805FA0CF527FA06F836
:1041D000D26807FA0CFCF24045EA08054CEA0206F0
:1041E000A4FB034CA5FB0352A6FB03631D449D42A5
:1041F00034BF012600261319334416B1934202D965
:1042000003E0934201D2012200E00022624402F165
:10421000200C9206DC0C42EA443200EE102A5B03CA
:10422000DFED210AF8EEC01A00EE103A4FEA9C1CAE
:1042300011F0004FB8EE400AC0F800C020EE201A7E
:1042400000EE105ADFED190AB8EE400A20EE200AFF
:1042500071EE810A70EE800A10EE902A02F500627B
:104260006FF30B0200EE902A70EEE11A31EEC11AE4
:10427000DFED101A30EE411A9FED0D0A20EE800A94
:1042800001EE210A9FED0C1A00EE810A04BFBDE881
:10429000F0017047CCF180510160BDE8F001B1EE52
:1042A000400A704760070000000000360000802CC4
:1042B00022AAFD29DB0FC92F0000C92F21F00042DF
:1042C00001F00043A2F16052B2F5801F28BFD2F185
:1042D0007F6C0BD95FEA001C43EAC20242EB5070CC
:1042E00018BF704728BF20F001007047B2F5801F4B
:1042F000BCBF184670474FEA410C1CF5001F02D2A4
:10430000084600F0F7BA70B500F022FA0000008904
:10431000FFF7F6BF4FF00040A0F5800070470000A7
:104320002DE9C04130B4DFF8A4C23CEA111418BF33
:104330003CEA131400F0ED801CEA111481EA030535
:1043400044EAD57418BF1CEA131500F0C880A4EB2A
:10435000050404F17F7404F500344FF0004545EA8C
:10436000C12145EAC32341EA505143EA52534FEA7F
:10437000C0204FEAC222994208BF904200F09D80BF
:104380004FEA13650FF24416765D4FEA134506FBBC
:1043900005F7C7F1807706FB07F74FEAD737A7FB8A
:1043A00003687642A7FB06CEC8F5803838BFA8F16F
:1043B000010807FB08E6A6FB028C4FF0000EE6FBA7
:1043C00003CEDCF1000CCEF1004E38BFAEF1010E91
:1043D000A6FB0C584FF00007E6FB0E87A1FB08C6B2
:1043E000A0FB07CE16EB0E064FF0000545F10005C9
:1043F000E1FB076515F1E04E7EBFA4F580345FEA6E
:1044000046066D4116F1800745F100054FEA172772
:1044100047EA05674FEA15254FEA0666A6F1DE462C
:10442000B6F1805F20D9384605EBC47124F0010C49
:1044300001EB0C11BCF1FE6F02D8F0BCBDE80081AD
:1044400024425CBF01F5801E9EEAC47F02D4F0BC0A
:10445000BDE80081244200F13980A1F1C041F0BCE7
:10446000BDE8004100F0C2B94FEAD02040EA415017
:104470004FEAD1214FEAD22242EA43524FEAD323F4
:10448000A7FB028607FB036605FB02661EEA0E0F0A
:1044900058BFA6EB0056B6EB00564FEA520E4EEA56
:1044A000C37E18EB0E0E56EB530EBCD518EB02086C
:1044B0005E417F1C55F10005B5E74FF480154FF0C4
:1044C00000074FF000064FF00008ACE701F1C041D3
:1044D00001F000414FF00000F0BCBDE800810CEAA3
:1044E000131511EA0C1F00D00CE013EA0C1F00F0AA
:1044F00026804FF0000081EA030101F00041F0BC8A
:10450000BDE80081F0BCBDE8004181EA030100F094
:104510006DB9F0BCBDE8004170B500F019F900BFFD
:10452000097EFC3E00F007B84FF0000081EA03016D
:1045300001F00041704781EA030100F057B9F0BC77
:10454000BDE8004122494FF000007047FFFDFBF934
:10455000F7F5F4F2F0EEEDEBE9E8E6E4E3E1E0DEB6
:10456000DDDBDAD8D7D5D4D3D1D0CFCDCCCBCAC828
:10457000C7C6C5C4C2C1C0BFBEBDBCBBBAB9B8B74F
:10458000B6B5B4B3B2B1B0AFAEADACABAAA9A8A842
:10459000A7A6A5A4A3A3A2A1A09F9F9E9D9C9C9B10
:1045A0009A999998979796959594939392919190BB
:1045B0008F8F8E8E8D8C8C8B8B8A8989888887874C
:1045C0008685858484838382828181800000FF07C1
:1045D0000000F87FB0FA80F310FA03F10AD0C3F1BB
:1045E0001D0303F580634FEA03524FEA415002EB8B
:1045F000D12170474FF000007047000070B5DFF820
:1046000048C11CEA111E1EBF1CEA13159EEA0C0FBE
:1046100095EA0C0F00F06F8081EA03044EEAD47E25
:10462000AE4421EA4C1123EA4C1341F4801143F4C7
:104630008013AEF17F7EA1FB024CA0FB036536190F
:1046400055EB0C05A1FB034C4CF10003A0FB021C35
:1046500016EB0C06654153F10003094218BF46F002
:10466000010613F4007F0BD14FEA03314FEA053006
:1046700041EA155140EA165034036FF003020AE094
:104680004FEAC3214FEAC52041EA555140EA56504E
:10469000F4026FF0020202EB2E4201EB025585EAB2
:1046A000CE710AD05FEA440C18BF24F0004450F1E8
:1046B000000041F1000120EAD47040F2FE7C624526
:1046C00000D270BDA84214BF4FF080444FF0404468
:1046D000002E08BF0024BEF1806FA8BFA1F1C04129
:1046E000BDE8704080F2828001F1C04101F00041DC
:1046F0004FF0000070470CEA13159EEA0C0F18BF2C
:1047000095EA0C0F06D081EA030E4FF000000EF080
:10471000004170BD00F01CF88900013E00F007B8B0
:1047200000F009B84FEA430C5FEA5C5C08D081EA0C
:10473000030100F05BB84FEA410C5FEA5C5CF6D124
:1047400002494FF0000070470000FF070000F87FAB
:104750000EF1020E2EF0030E5EF8046B364205D405
:10476000012A43EB030515F5001F12D8012841EB80
:10477000010C1CF5001F0CD80ED14FEAD17C0CEBBC
:104780004C0C0CF1020C15F5001F08BF4CEBD37C50
:1047900004E04FF0080C01E04FEAD37C0CEB4C0531
:1047A00026FA05F606F00706B6F1040C06D20EEB63
:1047B000860CBDE870404CF0010C6047DFE80CF05F
:1047C000090B02024FF00041A1F500214FF000005B
:1047D00070BD19461046012851EB010418BFD4F5ED
:1047E000001484BF002001F0004170BD0808A0F54E
:1047F00000114FEA3101704743004FEAD30C4FEAF2
:104800003C0C43401FBF40070CF1605113F0FE4FBA
:1048100070471CF0006F03D10CF00041002070477E
:104820000CF0004343EA507040EACC0010B500F0B1
:104830000EF800BF000000924FEA0001FFF7D6BF5C
:104840004FF00041A1F500214FF0000070470EF13C
:10485000020E2EF0030E5EF8044B244204D44FEAFD
:104860004102B2F17F4F11D84FEA4003B3F17F4FBD
:104870000CD80ED14FEAD07C0CEB4C0C0CF1020C96
:10488000B2F17F4F08BF4CEBD17C04E04FF0080C35
:1048900001E04FEAD17C0CEB4C0324FA03F404F062
:1048A0000704B4F1040C06D20EEB840CBDE81040F2
:1048B0004CF0010C6047DFE80CF0070802024FF0F3
:1048C0000040A0F5800010BD0846420018BFD2F19C
:1048D000807288BF00F0004010BDF1EE100A4FF664
:1048E000FF71C0F2C03120EA010040F04070E1EEFB
:1048F000100A7047FF2141EAD050C0057047000000
:10490000000000006E83F9A22915444ED15727FC00
:10491000C0DD34F5999562DB4190433CAB6351FEB9
:10492000000000000000000001020304060708095F
:104930000000000001020304000610160006101615
:10494000604900080000002010000000E801000895
:104950007049000810000020081000000402000840
:1049600001000000100000000024F400FF0000001F
:04000005080001AD41
:00000001FF
